LD0032110719                                      21106300001      SUM    IRG        4996F                  EUR                                                 CACIB           FRFR1  20103                                          4003 O99    9           999     99          101122           2 A+                                        9999        000001071428576+000000000000000+000000000000000+000000000000000+000000005745503+000000000000000+000000000000000+000000000000000+000000001017550+000000000000000+000000000000000+000000000000000+000000000000000000000000000000000000000000000000000000000000000000000000000000000000000000                              5 92   2292                                                                                     2                             00043                              11                                           2   9                                                                               192999993103IRG                 cMACRO  P20070418                FINANCEMENT                                                                                
LD0032110719                                      21106300001      SUM    IRG        4997F                  EUR                                                 CACIB           FRFR1  20103                                          4003 O99    9           999     99          101122           2 A+                                        9999        000000428571424+000000000000000+000000000000000+000000000000000+000000003477278+000000000000000+000000000000000+000000000000000+000000000615839+000000000000000+000000000000000+000000000000000+000000000000000000000000000000000000000000000000000000000000000000000000000000000000000000                              5 92   2292                                                                                     2                             00043                              11                                           2   9                                                                               192999993103IRG                 cMACRO  P20070418                FINANCEMENT                                                                                
LD0032110719                                      21106300001      SUM    IRG        4998F                  EUR                                                 CACIB           FRFR1  20103                                          4003 O99    9           999     99          109922           2 A+                                        9999        000002142857136+000000000000000+000000000000000+000000000000000+000000004465682+000000000000000+000000000000000+000000000000000+000000000796343+000000000000000+000000000000000+000000000000000+000000000000000000000000000000000000000000000000000000000000000000000000000000000000000000                              5 92   2292                                                                                     2                             00043                              11                                           2   9                                                                               192999993109IRG                 cPE     P20070411                FINANCEMENT                                                                                
LD0032110719                                      21106300001      SUM    IRG        4999F                  EUR                                                 RBS             GBGB6  20110                                          4003 O99    9           999     99          101122           2 A+                                        9999        000000412500000+000000000000000+000000000000000+000000000000000+000000009192949+000000000000000+000000000000000+000000000000000+000000000552615+000000000000000+000000000000000+000000000000000+000000000000000000000000000000000000000000000000000000000000000000000000000000000000000000                              5 92   2292                                                                                     2                             00043                              11                                           2   9                                                                               192999994103IRG                 cMACRO  P20090928                FINANCEMENT                                                                                
LD0032110719                                      21106300001      SUM    IRG        5000F                  EUR                                                 RBS             GBGB6  20110                                          4003 O99    9           999     99          101122           2 A+                                        9999        000000412500000+000000000000000+000000000000000+000000000000000+000000008979628+000000000000000+000000000000000+000000000000000+000000000555093+000000000000000+000000000000000+000000000000000+000000000000000000000000000000000000000000000000000000000000000000000000000000000000000000                              5 92   2292                                                                                     2                             00043                              11                                           2   9                                                                               192999994103IRG                 cMACRO  P20090707                FINANCEMENT                                                                                
LD0032110719                                      21106300001      SUM    IRG        5001F                  EUR                                                 HSBC_FRANCE     FRFR1  20103                                          4003 O99    9           999     99          101122           2 A+                                        9999        000000500000000+000000000000000+000000000000000+000000000000000+000000006666262+000000000000000+000000000000000+000000000000000+000000000999663+000000000000000+000000000000000+000000000000000+000000000000000000000000000000000000000000000000000000000000000000000000000000000000000000                              5 92   2292                                                                                     2                             00043                              11                                           2   9                                                                               192999993103IRG                 cMACRO  P20091020                FINANCEMENT                                                                                
LD0032110719                                      21106300001      SUM    MM         4113F                  EUR                                                 AUXIFIP         FRFR1  20107                                          4003 O99    9           999     99          999929           2 A+                                        9999        000000091469410+000000000000000+000000000000000+000000000000000+000000000000000+000000000000000+000000000000000+000000001793051+000000000000000+000000000000000+000000091469410+000000003061719+000000000000000000000000000000000000000000000000000000000000000000091469410000000000000000                              5 92   2292                                                                                     2                             00043                              11                                           20429                                                                               192999993999MM                  cPE     P19970317                FINANCEMENT                   LOAN TRM_BLAN                                                
LD0032110719                                      21106300001      SUM    MM         4114F                  EUR                                                 KFW             DEDE5  20110                                          4003 O99    9           999     99          999929           2 P+                                        9999        000010000000000+000000000000000+000000000000000+000000000000000+000000000000000+000000000000000+000000042270000+000000000000000+000000064727639+000000000000000+000010000000000+000000000000000+000000000000000000000000000000000000000000000000000000000000-00010000000000000000000000000                              5 92   2292                                                                                     2                             00043                              11                                           20309                                                                               192999993199MM                  cPE     S20000915                FINANCEMENT                   DEPO MLT_PE                                                  
LD0032110719                                      21106300001      SUM    MM         4115F                  EUR                                                 CDC             FRFR1  11105                                          4003 O99    9           999     99          999929           2 P+                                        9999        000000000000000+000000000000000+000000000000000+000000000000000+000000000000000+000000000000000+000000000000000+000000000000000+000000043849315+000000000000000+000000000000000+000000000000000+000000000000000000000000000000000000000000000000000000000000000000000000000000000000000000                              5 92   2292                                                                                     2                             00043                              11                                           20309                                                                               192999990999MM                  cPE     S20010112                FINANCEMENT                   DEPO MLT_PE                                                  
LD0032110719                                      21106300001      SUM    MM         4116F                  EUR                                                 KFW             DEDE5  20110                                          4003 O99    9           999     99          999929           2 P+                                        9999        000007500000000+000000000000000+000000000000000+000000000000000+000000000000000+000000000000000+000000037761558+000000000000000+000000044519364+000000000000000+000007500000000+000000000000000+000000000000000000000000000000000000000000000000000000000000-00007500000000000000000000000                              5 92   2292                                                                                     2                             00043                              11                                           20309                                                                               192999993199MM                  TRADING S20010201                FINANCEMENT                   DEPO MLT_PE                                                  
LD0032110719                                      21106300001      SUM    MM         4117F                  EUR                                                 CNP             FRFR1  30304                                          4003 N99    1           999     99          999929           2 P+                                        9999        000000000000000+000000000000000+000000000000000+000000000000000+000000000000000+000000000000000+000000000000000+000000000000000+000000000015048+000000000000000+000000000000000+000000000000000+000000000000000000000000000000000000000000000000000000000000000000000000000000000000000000                              6 92   2292                                                                                     2                             00043                              11                                           20429                                                                               192999990999MM                  cPE     S19960305                FINANCEMENT                   DEPO MLT_ZC                                                  
LD0032110719                                      21106300001      SUM    MM         4118F                  EUR                                                 CNP             FRFR1  30304                                          4003 N99    1           999     99          999929           2 P+                                        9999        000000000000000+000000000000000+000000000000000+000000000000000+000000000000000+000000000000000+000000000000000+000000000000000+000000003007628+000000000000000+000000006815538+000000000000000+000000000000000000000000000000000000000000000000000000000000000000000000000000000000000000                              6 92   2292                                                                                     2                             00043                              11                                           20429                                                                               192999990999MM                  cPE     S19960605                FINANCEMENT                   DEPO MLT_ZC                                                  
LD0032110719                                      21106300001      SUM    MM         4119F                  EUR                                                 CNP             FRFR1  30304                                          4003 N99    1           999     99          999929           2 P+                                        9999        000000008021736+000000000000000+000000000000000+000000000000000+000000000000000+000000000000000+000000012344172+000000000000000+000000000642390+000000000000000+000000008021736+000000000000000+000000000000000000000000000000-00000008021736000000000000000000000000000000000000000000000                              6 92   2292                                                                                     2                             00043                              11                                           20429                                                                               192999991999MM                  cPE     S19961205                FINANCEMENT                   DEPO MLT_ZC                                                  
LD0032110719                                      21106300001      SUM    MM         4120F                  EUR                                                 CDC             FRFR1  11105                                          4003 O99    9           999     99          999929           2 P+                                        9999        000035000000000+000000000000000+000000000000000+000000000000000+000000000000000+000000000000000+000001646515068+000000000000000+000000853923287+000000000000000+000035000000000+000000000000000+000000000000000000000000000000000000000000000000000000000000-00035000000000000000000000000                              5 92   2292                                                                                     2                             00043                              11                                           20309                                                                               192999992999MM                  cPE     S20020717                FINANCEMENT                   DEPO MLT_PE                                                  
LD0032110719                                      21106300001      SUM    MM         4121F                  EUR                                                 CDC             FRFR1  11105                                          4003 O99    9           999     99          999929           2 P+                                        9999        000037900000000+000000000000000+000000000000000+000000000000000+000000000000000+000000000000000+000001431124767+000000000000000+000000757408137+000000000000000+000037900000000+000000000000000+000000000000000000000000000000000000000000000000000000000000-00037900000000000000000000000                              5 92   2292                                                                                     2                             00043                              11                                           20309                                                                               192999993999MM                  cPE     S20030724                FINANCEMENT                   DEPO MLT_PE                                                  
LD0032110719                                      21106300001      SUM    MM         4122F                  EUR                                                 CDC             FRFR1  11105                                          4003 O99    9           999     99          999929           2 P+                                        9999        000000000000000+000000000000000+000000000000000+000000000000000+000000000000000+000000000000000+000000000000000+000000000000000+000000014618399+000000000000000+000000000000000+000000000000000+000000000000000000000000000000000000000000000000000000000000000000000000000000000000000000                              5 92   2292                                                                                     2                             00043                              11                                           20309                                                                               192999990999MM                  cPE     S19960108                FINANCEMENT                   DEPO MLT_PE                                                  
LD0032110719                                      21106300001      SUM    MM         4123F                  EUR                                                 CONS_EUROPE     BEBE5  20111                                          4003 O99    9           999     99          999929           2 P+                                        9999        000002500000000+000000000000000+000000000000000+000000000000000+000000000000000+000000000000000+000000001164167+000000000000000+000000014560278+000000000000000+000002500000000+000000000000000+000000000000000000000000000000000000000000000000000000000000-00002500000000000000000000000                              3 92   2292                                                                                     2                             00043                              11                                           20429                                                                               192999993199MM                  cPE     S20031218                FINANCEMENT                   DEPO MLT_PE                                                  
LD0032110719                                      21106300001      SUM    MM         4124F                  EUR                                                 CDC             FRFR1  11105                                          4003 O99    9           999     99          999929           2 P+                                        9999        000017500000000+000000000000000+000000000000000+000000000000000+000000000000000+000000000000000+000000362063014+000000000000000+000000376628767+000000000000000+000017500000000+000000000000000+000000000000000000000000000000000000000000000000000000000000-00017500000000000000000000000                              5 92   2292                                                                                     2                             00043                              11                                           20309                                                                               192999993999MM                  cPE     S20040108                FINANCEMENT                   DEPO MLT_PE                                                  
LD0032110719                                      21106300001      SUM    MM         4125F                  EUR                                                 CONS_EUROPE     BEBE5  20111                                          4003 O99    9           999     99          999929           2 P+                                        9999        000002500000000+000000000000000+000000000000000+000000000000000+000000000000000+000000000000000+000000003735972+000000000000000+000000014607361+000000000000000+000002500000000+000000000000000+000000000000000000000000000000000000000000000000000000000000-00002500000000000000000000000                              3 92   2292                                                                                     2                             00043                              11                                           20429                                                                               192999993199MM                  cPE     S20040225                FINANCEMENT                   DEPO MLT_PE                                                  
LD0032110719                                      21106300001      SUM    MM         4126F                  EUR                                                 CDC             FRFR1  11105                                          4003 O99    9           999     99          999929           2 P+                                        9999        000014600000000+000000000000000+000000000000000+000000000000000+000000000000000+000000000000000+000000451328000+000000000000000+000000237472000+000000000000000+000014600000000+000000000000000+000000000000000000000000000000000000000000000000000000000000-00014600000000000000000000000                              5 92   2292                                                                                     2                             00043                              11                                           20309                                                                               192999993999MM                  cPE     S20050722                FINANCEMENT                   DEPO MLT_PE                                                  
LD0032110719                                      21106300001      SUM    MM         4129F                  GBP                                                 OSEO            FRFR1  21201                                          4003 N99    9           999     99          999929           2 P+                                        9999        000002390470590+000000000000000+000000000000000+000000000000000+000000000000000+000000000000000+000000000526558+000000000000000+000000009038891+000000000000000+000002390470590+000000000000000+000000000000000000000000000000-00000199205882000000000000000-00000796823528-00001394441180                              7 92   2292                                                                                     2                             00043                              11                                           20309                                                                               192999994199MM                  cPE     S20051221                FINANCEMENT                   DEPO MLT_PE                                                  
LD0032110719                                      21106300001      SUM    MM         4130F                  EUR                                                 CDC             FRFR1  11105                                          4003 O99    9           999     99          999929           2 P+                                        9999        000025000000000+000000000000000+000000000000000+000000000000000+000000000000000+000000000000000+000000496849315+000000000000000+000000483493151+000000000000000+000025000000000+000000000000000+000000000000000000000000000000000000000000000000000000000000000000000000000-00025000000000                              5 92   2292                                                                                     2                             00043                              11                                           20309                                                                               192999994999MM                  cPE     S20061227                FINANCEMENT                   DEPO MLT_PE                                                  
LD0032110719                                      21106300001      SUM    MM         4131F                  EUR                                                 BQE_POSTALE     FRFR1  20103                                          4003 O99    9           999     99          999929           2 P+                                        9999        000052000000000+000000000000000+000000000000000+000000000000000+000000000000000+000000000000000+000000111475000+000000000000000+000000267165889+000000000000000+000052000000000+000000000000000+000000000000000000000000000000000000000000000000000000000000000000000000000-00052000000000                              5 92   2292                                                                                     2                             00043                              11                                           20309                                                                               192999994199MM                  cPE     S20070131                FINANCEMENT                   DEPO MLT_PE                                                  
LD0032110719                                      21106300001      SUM    MM         4132F                  EUR                                                 CDC             FRFR1  11105                                          4003 O99    9           999     99          999929           2 P+                                        9999        000025000000000+000000000000000+000000000000000+000000000000000+000000000000000+000000000000000+000000408328767+000000000000000+000000513246575+000000000000000+000025000000000+000000000000000+000000000000000000000000000000000000000000000000000000000000000000000000000-00025000000000                              5 92   2292                                                                                     2                             00043                              11                                           20309                                                                               192999994999MM                  cPE     S20070207                FINANCEMENT                   DEPO MLT_PE                                                  
LD0032110719                                      21106300001      SUM    MM         4133F                  EUR                                                 BEI             LULU5  10111                                          3003 O99    9           999     99          999929           2 P+                                        9999        000000000000000+000000000000000+000000000000000+000000000000000+000000000000000+000000000000000+000000000000000+000000000000000+000000015125000+000000000000000+000002100000000+000000000000000+000000000000000000000000000000000000000000000000000000000000000000000000000000000000000000                              3 92   2292                                                                                     2                             00043                              11                                           20429                                                                               192999990199MM                  cPE     S20070622                FINANCEMENT                   DEPO MLT_PE                                                  
LD0032110719                                      21106300001      SUM    MM         4134F                  EUR                                                 BEI             LULU5  10111                                          4003 O99    9           999     99          999929           2 P+                                        9999        000005000000000+000000000000000+000000000000000+000000000000000+000000000000000+000000000000000+000000001836250+000000000000000+000000027187917+000000000000000+000005000000000+000000000000000+000000000000000000000000000000000000000000000000000000000000-00005000000000000000000000000                              3 92   2292                                                                                     2                             00043                              11                                           20429                                                                               192999993199MM                  cPE     S20070622                FINANCEMENT                   DEPO MLT_PE                                                  
LD0032110719                                      21106300001      SUM    MM         4135F                  EUR                                                 BPCE            FRFR1  20103                                          4003 O99    9           999     99          999929           2 P+                                        9999        000007000000000+000000000000000+000000000000000+000000000000000+000000000000000+000000000000000+000000084583333+000000000000000+000000101145833+000000000000000+000007000000000+000000000000000+000000000000000-00000500000000000000000000000-00000500000000-00004000000000-00002000000000                              5 92   2292                                                                                     2                             00043                              11                                           20309                                                                               192999994199MM                  cPE     S20080201                FINANCEMENT                   DEPO MLT_PE                                                  
LD0032110719                                      21106300001      SUM    MM         4136F                  EUR                                                 CDC             FRFR1  11105                                          4003 O99    9           999     99          999929           2 P+                                        9999        000025000000000+000000000000000+000000000000000+000000000000000+000000000000000+000000000000000+000000500684932+000000000000000+000000526883562+000000000000000+000025000000000+000000000000000+000000000000000000000000000000000000000000000000000000000000000000000000000-00025000000000                              5 92   2292                                                                                     2                             00043                              11                                           20309                                                                               192999994999MM                  cPE     S20080110                FINANCEMENT                   DEPO MLT_PE                                                  
LD0032110719                                      21106300001      SUM    MM         4137F                  EUR                                                 BQE_POSTALE     FRFR1  20103                                          4003 O99    9           999     99          999929           2 P+                                        9999        000020000000000+000000000000000+000000000000000+000000000000000+000000000000000+000000000000000+000000041125000+000000000000000+000000097728334+000000000000000+000020000000000+000000000000000+000000000000000000000000000000000000000000000000000000000000000000000000000-00020000000000                              5 92   2292                                                                                     2                             00043                              11                                           20309                                                                               192999994199MM                  cPE     S20080131                FINANCEMENT                   DEPO MLT_PE                                                  
LD0032110719                                      21106300001      SUM    MM         4138F                  EUR                                                 BEI             LULU5  10111                                          3003 O99    9           999     99          999929           2 P+                                        9999        000003000000000+000000000000000+000000000000000+000000000000000+000000000000000+000000000000000+000000000486333+000000000000000+000000015849500+000000000000000+000003000000000+000000000000000+000000000000000000000000000000000000000000000-00003000000000000000000000000000000000000000                              3 92   2292                                                                                     2                             00043                              11                                           20429                                                                               192999991199MM                  cPE     S20080326                FINANCEMENT                   DEPO MLT_PE                                                  
LD0032110719                                      21106300001      SUM    MM         4139F                  EUR                                                 BEI             LULU5  10111                                          3003 O99    9           999     99          999929           2 P+                                        9999        000006000000000+000000000000000+000000000000000+000000000000000+000000000000000+000000000000000+000000003772500+000000000000000+000000035313167+000000000000000+000006000000000+000000000000000+000000000000000000000000000000000000000000000000000000000000-00006000000000000000000000000                              3 92   2292                                                                                     2                             00043                              11                                           20429                                                                               192999992199MM                  cPE     S20081216                FINANCEMENT                   DEPO MLT_PE                                                  
LD0032110719                                      21106300001      SUM    MM         4140F                  EUR                                                 CONS_EUROPE     BEBE5  20111                                          4003 O99    9           999     99          999929           2 P+                                        9999        000005000000000+000000000000000+000000000000000+000000000000000+000000000000000+000000000000000+000000002343611+000000000000000+000000029311112+000000000000000+000005000000000+000000000000000+000000000000000000000000000000000000000000000000000000000000-00001000000000-00004000000000                              3 92   2292                                                                                     2                             00043                              11                                           20429                                                                               192999994199MM                  cPE     S20081219                FINANCEMENT                   DEPO MLT_PE                                                  
LD0032110719                                      21106300001      SUM    MM         4141F                  EUR                                                 CDC             FRFR1  11105                                          4003 O99    9           999     99          999929           2 P+                                        9999        000025000000000+000000000000000+000000000000000+000000000000000+000000000000000+000000000000000+000000211479452+000000000000000+000000461178082+000000000000000+000025000000000+000000000000000+000000000000000000000000000000000000000000000000000000000000000000000000000-00025000000000                              5 92   2292                                                                                     2                             00043                              11                                           20309                                                                               192999994999MM                  cPE     S20090409                FINANCEMENT                   DEPO MLT_PE                                                  
LD0032110719                                      21106300001      SUM    MM         4142F                  EUR                                                 CDC             FRFR1  11105                                          4003 O99    9           999     99          999929           2 P+                                        9999        000050000000000+000000000000000+000000000000000+000000000000000+000000000000000+000000000000000+000000158904110+000000000000000+000000991780822+000000000000000+000050000000000+000000000000000+000000000000000000000000000000000000000000000000000000000000000000000000000-00050000000000                              5 92   2292                                                                                     2                             00043                              11                                           20309                                                                               192999994999MM                  cPE     S20090602                FINANCEMENT                   DEPO MLT_PE                                                  
LD0032110719                                      21106300001      SUM    MM         4143F                  EUR                                                 CDC             FRFR1  11105                                          4003 O99    9           999     99          999929           2 P+                                        9999        000050000000000+000000000000000+000000000000000+000000000000000+000000000000000+000000000000000+000000997191781+000000000000000+000000855410959+000000000000000+000050000000000+000000000000000+000000000000000000000000000000000000000000000000000000000000000000000000000-00050000000000                              5 92   2292                                                                                     2                             00043                              11                                           20309                                                                               192999994999MM                  cPE     S20091202                FINANCEMENT                   DEPO MLT_PE                                                  
LD0032110719                                      21106300001      SUM    MM         4144F                  EUR                                                 BEI             LULU5  10111                                          4003 O99    9           999     99          999929           2 P+                                        9999        000010000000000+000000000000000+000000000000000+000000000000000+000000000000000+000000000000000+000000026132222+000000000000000+000000070550555+000000000000000+000010000000000+000000000000000+000000000000000000000000000000000000000000000000000000000000-00010000000000000000000000000                              3 92   2292                                                                                     2                             00043                              11                                           20429                                                                               192999993199MM                  cPE     S20100504                FINANCEMENT                   DEPO MLT_PE                                                  
LD0032110719                                      21106300001      SUM    MM         4145F                  EUR                                                 CONS_EUROPE     BEBE5  20111                                          4003 O99    9           999     99          999929           2 P+                                        9999        000005000000000+000000000000000+000000000000000+000000000000000+000000000000000+000000000000000+000000007100972+000000000000000+000000036613195+000000000000000+000005000000000+000000000000000+000000000000000000000000000000000000000000000000000000000000-00000500000000-00004500000000                              3 92   2292                                                                                     2                             00043                              11                                           20429                                                                               192999994199MM                  cPE     S20100602                FINANCEMENT                   DEPO MLT_PE                                                  
LD0032110719                                      21106300001      SUM    MM         4146F                  EUR                                                 CDC             FRFR1  11105                                          4003 O99    9           999     99          999929           2 P+                                        9999        000050000000000+000000000000000+000000000000000+000000000000000+000000000000000+000000000000000+000000067506849+000000000000000+000000763671233+000000000000000+000050000000000+000000000000000+000000000000000000000000000000000000000000000000000000000000000000000000000-00050000000000                              5 92   2292                                                                                     2                             00043                              11                                           20309                                                                               192999994999MM                  cPE     S20100615                FINANCEMENT                   DEPO MLT_PE                                                  
LD0032110719                                      21106300001      SUM    MM         4149F                  EUR                                                 OSEO            FRFR1  21201                                          4003 N99    9           999     99          999929           2 P+                                        9999        000050000000000+000000000000000+000000000000000+000000000000000+000000000000000+000000000000000+000000884356164+000000000000000+000000838054794+000000000000000+000050000000000+000000000000000+000000000000000000000000000000000000000000000000000000000000000000000000000-00050000000000                              7 92   2292                                                                                     2                             00043                              11                                           20309                                                                               192999994999MM                  cPE     S20101222                FINANCEMENT                   DEPO MLT_PE                                                  
LD0032110719                                      21106300001      SUM    MM         4150F                  EUR                                                 CRED_AGR_SA     FRFR1  20103                                          0003 O99    9           999     99          999929           2 A+                                        9999        000000000000000+000000000000000+000000000000000+000000000000000+000000000000000+000000000000000+000000000000000+000000000000000+000000000000000+000000000000000+000000000000000+000000000111111+000000000000000000000000000000000000000000000000000000000000000000000000000000000000000000                              5 92   2292                                                                                     2                             00043                              11                                           20429                                                                               192999990999MM                  cPE     P20101231                FINANCEMENT                   LOAN JJ_BLANC                                                
LD0032110719                                      21106300001      SUM    MM         4151F                  EUR                                                 BDF             FRFR1  10101                                          0003 O99    9           999     99          999929           2 A+                                        9999        000000000000000+000000000000000+000000000000000+000000000000000+000000000000000+000000000000000+000000000000000+000000000000000+000000000000000+000000000000000+000000000000000+000000000048611+000000000000000000000000000000000000000000000000000000000000000000000000000000000000000000                              1 92   2292                                                                                     2                             00043                              11                                           20429                                                                               191999990999MM                  cPE     P20101231                FINANCEMENT                   LOAN JJ_BCE                                                  
LD0032110719                                      21106300001      SUM    MM         4152F                  EUR                                                 KFW             DEDE5  20110                                          4003 O99    9           999     99          999929           2 P+                                        9999        000007500000000+000000000000000+000000000000000+000000000000000+000000000000000+000000000000000+000000031990531+000000000000000+000000044511361+000000000000000+000007500000000+000000000000000+000000000000000000000000000000000000000000000000000000000000-00007500000000000000000000000                              5 92   2292                                                                                     2                             00043                              11                                           20309                                                                               192999993199MM                  cPE     S19990901                FINANCEMENT                   DEPO MLT_PE                                                  
LD0032110719                                      21106300001      SUM    MM         4153F                  EUR                                                 KFW             DEDE5  20110                                          4003 O99    9           999     99          999929           2 P+                                        9999        000010000000000+000000000000000+000000000000000+000000000000000+000000000000000+000000000000000+000000043620000+000000000000000+000000066990139+000000000000000+000010000000000+000000000000000+000000000000000000000000000000-00010000000000000000000000000000000000000000000000000000000                              5 92   2292                                                                                     2                             00043                              11                                           20309                                                                               192999991199MM                  cPE     S20011218                FINANCEMENT                   DEPO MLT_PE                                                  
LD0032110719                                      21106300001      SUM    MM         4154F                  EUR                                                 AUXIFINANCES    FRFR1  31301                                          4003 N99    1           999     99          999929           2 A+                                        9999        000002572163405+000000000000000+000000000000000+000000000000000+000000000000000+000000000000000+000000000000000+000000003065161+000000000000000+000000000000000+000002572163405+000000014572521+000000000000000000000359577640000000000000000000000000000000000001708259523000000504326242                              6 92   2292                                                                                     2                             00043                              11                                           20309                                                                               192999994199MM                  cPE     P20011231                FINANCEMENT                   LOAN MLT_PE                                                  
LD0032110719                                      21106300001      SUM    MM         4155F                  EUR                                                 KFW             DEDE5  20110                                          4003 O99    9           999     99          999929           2 P+                                        9999        000010000000000+000000000000000+000000000000000+000000000000000+000000000000000+000000000000000+000000047670000+000000000000000+000000073777639+000000000000000+000010000000000+000000000000000+000000000000000000000000000000000000000000000000000000000000-00010000000000000000000000000                              5 92   2292                                                                                     2                             00043                              11                                           20309                                                                               192999992199MM                  cPE     S20031124                FINANCEMENT                   DEPO MLT_PE                                                  
LD0032110719                                      21106300001      SUM    MM         4156F                  EUR                                                 KFW             DEDE5  20110                                          4003 O99    9           999     99          999929           2 P+                                        9999        000010000000000+000000000000000+000000000000000+000000000000000+000000000000000+000000000000000+000000047670000+000000000000000+000000072773889+000000000000000+000010000000000+000000000000000+000000000000000000000000000000000000000000000000000000000000-00010000000000000000000000000                              5 92   2292                                                                                     2                             00043                              11                                           20309                                                                               192999993199MM                  cPE     S20050330                FINANCEMENT                   DEPO MLT_PE                                                  
LD0032110719                                      21106300001      SUM    MM         4159F                  EUR                                                 OSEO            FRFR1  21201                                          4003 N99    9           999     99          999929           2 P+                                        9999        000030000000000+000000000000000+000000000000000+000000000000000+000000000000000+000000000000000+000000312500000+000000000000000+000000368750000+000000000000000+000030000000000+000000000000000+000000000000000000000000000000000000000000000000000000000000000000000000000-00030000000000                              7 92   2292                                                                                     2                             00043                              11                                           20309                                                                               192999994199MM                  cPE     S20060623                FINANCEMENT                   DEPO MLT_PE                                                  
LD0032110719                                      21106300001      SUM    MM         4160F                  EUR                                                 BPCE            FRFR1  20103                                          4003 O99    9           999     99          999929           2 P+                                        9999        000020020000000+000000000000000+000000000000000+000000000000000+000000000000000+000000000000000+000000208541667+000000000000000+000000246079167+000000000000000+000020020000000+000000000000000+000000000000000000000000000000000000000000000000000000000000000000000000000-00020020000000                              5 92   2292                                                                                     2                             00043                              11                                           20309                                                                               192999994199MM                  cPE     S20061201                FINANCEMENT                   DEPO MLT_PE                                                  
LD0032110719                                      21106300001      SUM    MM         4161F                  EUR                                                 KFW             DEDE5  20110                                          4003 O99    9           999     99          999929           2 P+                                        9999        000010000000000+000000000000000+000000000000000+000000000000000+000000000000000+000000000000000+000000044670000+000000000000000+000000067746111+000000000000000+000010000000000+000000000000000+000000000000000000000000000000000000000000000000000000000000-00010000000000000000000000000                              5 92   2292                                                                                     2                             00043                              11                                           20309                                                                               192999992199MM                  cPE     S20070928                FINANCEMENT                   DEPO MLT_PE                                                  
LD0032110719                                      21106300001      SUM    MM         4162F                  EUR                                                 CDC             FRFR1  11105                                          3003 O99    9           999     99          999929           2 P+                                        9999        000022867352586+000000000000000+000000000000000+000000000000000+000000000000000+000000000000000+000000225541012+000000000000000+000000248564990+000000000000000+000022867352586+000000000000000+000000000000000000000000000000000000000000000-00022867352586000000000000000000000000000000                              5 92   2292                                                                                     2                             00043                              11                                           20309                                                                               192999991199MM                  cPE     S20071221                FINANCEMENT                   DEPO MLT_PE                                                  
LD0032110719                                      21106300001      SUM    MM         4163F                  EUR                                                 CDC             FRFR1  11105                                          3003 O99    9           999     99          999929           2 P+                                        9999        000022867352586+000000000000000+000000000000000+000000000000000+000000000000000+000000000000000+000000225541012+000000000000000+000000248564990+000000000000000+000022867352586+000000000000000+000000000000000000000000000000000000000000000-00022867352586000000000000000000000000000000                              5 92   2292                                                                                     2                             00043                              11                                           20309                                                                               192999991199MM                  cPE     S20071221                FINANCEMENT                   DEPO MLT_PE                                                  
LD0032110719                                      21106300001      SUM    MM         4164F                  EUR                                                 CDC             FRFR1  11105                                          3003 O99    9           999     99          999929           2 P+                                        9999        000022867352586+000000000000000+000000000000000+000000000000000+000000000000000+000000000000000+000000225541012+000000000000000+000000248564990+000000000000000+000022867352586+000000000000000+000000000000000000000000000000000000000000000-00022867352586000000000000000000000000000000                              5 92   2292                                                                                     2                             00043                              11                                           20309                                                                               192999991199MM                  cPE     S20071221                FINANCEMENT                   DEPO MLT_PE                                                  
LD0032110719                                      21106300001      SUM    MM         4165F                  EUR                                                 CDC             FRFR1  11105                                          4003 O99    9           999     99          999929           2 P+                                        9999        000050000000000+000000000000000+000000000000000+000000000000000+000000000000000+000000000000000+000000971506849+000000000000000+000000892602739+000000000000000+000050000000000+000000000000000+000000000000000000000000000000000000000000000000000000000000000000000000000-00050000000000                              5 92   2292                                                                                     2                             00043                              11                                           20309                                                                               192999994999MM                  cPE     S20081216                FINANCEMENT                   DEPO MLT_PE                                                  
LD0032110719                                      21106300001      SUM    MM         5035F                  EUR                                                 CDC             FRFR1  11105                                          4003 O99    9           999     99          999929           2 P+                                        9999        000000091469411+000000000000000+000000000000000+000000000000000+000000000000000+000000000000000+000000001199164+000000000000000+000000004126071+000000000000000+000000091469411+000000000000000+000000000000000000000000000000-00000060979607-00000030489804000000000000000000000000000000                              5 92   2292                                                                                     2                             00043                              11                                           20309                                                                               192999991999MM                  cPE     S19970415                FINANCEMENT                   DEPO MLT_PE                                                  
LD0032110719                                      21106300001      SUM    MM         5048F                  EUR                                                 FCT_PRO_PME1    FRFR1  30203                                          4003 N99    9           999     99          999929           2 P+                                        9999        000020000000000+000000000000000+000000000000000+000000000000000+000000000000000+000000000000000+000000002992444+000000000000000+000000127578443+000000000000000+000020000000000+000000000000000+000000000000000000000000000000000000000000000000000000000000-00011825000000-00008175000000                              6 92   2292                                                                                     2                             00043                              11                                           20429                                                                               192999994199MM                  cPE     S20101227                FINANCEMENT                   DEPO MLT_PE                                                  
LD0032110719                                      21106300001      SUM    MM         5092F                  EUR                                                 SG              FRFR1  20103                                          0003 O99    9           999     99          999929           2 A+                                        9999        000000000000000+000000000000000+000000000000000+000000000000000+000000000000000+000000000000000+000000000000000+000000000000000+000000000000000+000000000000000+000000000000000+000000000083333+000000000000000000000000000000000000000000000000000000000000000000000000000000000000000000                              5 92   2292                                                                                     2                             00043                              11                                           20429                                                                               192999990999MM                  cPE     P20110103                FINANCEMENT                   LOAN JJ_BLANC                                                
LD0032110719                                      21106300001      SUM    MM         5098F                  EUR                                                 CRED_AGR_SA     FRFR1  20103                                          0003 O99    9           999     99          999929           2 A+                                        9999        000000000000000+000000000000000+000000000000000+000000000000000+000000000000000+000000000000000+000000000000000+000000000000000+000000000000000+000000000000000+000000000000000+000000000015000+000000000000000000000000000000000000000000000000000000000000000000000000000000000000000000                              5 92   2292                                                                                     2                             00043                              11                                           20429                                                                               192999990999MM                  cPE     P20110103                FINANCEMENT                   LOAN JJ_BLANC                                                
LD0032110719                                      21106300001      SUM    MM         5100F                  EUR                                                 CRED_AGR_SA     FRFR1  20103                                          0003 O99    9           999     99          999929           2 A+                                        9999        000000000000000+000000000000000+000000000000000+000000000000000+000000000000000+000000000000000+000000000000000+000000000000000+000000000000000+000000000000000+000000000000000+000000000062500+000000000000000000000000000000000000000000000000000000000000000000000000000000000000000000                              5 92   2292                                                                                     2                             00043                              11                                           20429                                                                               192999990999MM                  cPE     P20110104                FINANCEMENT                   LOAN JJ_BLANC                                                
LD0032110719                                      21106300001      SUM    MM         5103F                  EUR                                                 CRED_AGR_SA     FRFR1  20103                                          0003 O99    9           999     99          999929           2 A+                                        9999        000000000000000+000000000000000+000000000000000+000000000000000+000000000000000+000000000000000+000000000000000+000000000000000+000000000000000+000000000000000+000000000000000+000000000054167+000000000000000000000000000000000000000000000000000000000000000000000000000000000000000000                              5 92   2292                                                                                     2                             00043                              11                                           20429                                                                               192999990999MM                  cPE     P20110105                FINANCEMENT                   LOAN JJ_BLANC                                                
LD0032110719                                      21106300001      SUM    MM         5105F                  EUR                                                 CRED_AGR_SA     FRFR1  20103                                          0003 O99    9           999     99          999929           2 A+                                        9999        000000000000000+000000000000000+000000000000000+000000000000000+000000000000000+000000000000000+000000000000000+000000000000000+000000000000000+000000000000000+000000000000000+000000000048333+000000000000000000000000000000000000000000000000000000000000000000000000000000000000000000                              5 92   2292                                                                                     2                             00043                              11                                           20429                                                                               192999990999MM                  cPE     P20110106                FINANCEMENT                   LOAN JJ_BLANC                                                
LD0032110719                                      21106300001      SUM    MM         5107F                  EUR                                                 CRED_AGR_SA     FRFR1  20103                                          0003 O99    9           999     99          999929           2 A+                                        9999        000000000000000+000000000000000+000000000000000+000000000000000+000000000000000+000000000000000+000000000000000+000000000000000+000000000000000+000000000000000+000000000000000+000000000250000+000000000000000000000000000000000000000000000000000000000000000000000000000000000000000000                              5 92   2292                                                                                     2                             00043                              11                                           20429                                                                               192999990999MM                  cPE     P20110107                FINANCEMENT                   LOAN JJ_BLANC                                                
LD0032110719                                      21106300001      SUM    MM         5108F                  EUR                                                 BNP_PARIBAS     FRFR1  20103                                          0003 O99    9           999     99          999929           2 A+                                        9999        000000000000000+000000000000000+000000000000000+000000000000000+000000000000000+000000000000000+000000000000000+000000000000000+000000000000000+000000000000000+000000000000000+000000000225000+000000000000000000000000000000000000000000000000000000000000000000000000000000000000000000                              5 92   2292                                                                                     2                             00043                              11                                           20429                                                                               192999990999MM                  cPE     P20110107                FINANCEMENT                   LOAN JJ_BLANC                                                
LD0032110719                                      21106300001      SUM    MM         5110F                  EUR                                                 CRED_AGR_SA     FRFR1  20103                                          0003 O99    9           999     99          999929           2 A+                                        9999        000000000000000+000000000000000+000000000000000+000000000000000+000000000000000+000000000000000+000000000000000+000000000000000+000000000000000+000000000000000+000000000000000+000000000083333+000000000000000000000000000000000000000000000000000000000000000000000000000000000000000000                              5 92   2292                                                                                     2                             00043                              11                                           20429                                                                               192999990999MM                  cPE     P20110110                FINANCEMENT                   LOAN JJ_BLANC                                                
LD0032110719                                      21106300001      SUM    MM         5112F                  EUR                                                 BNP_PARIBAS     FRFR1  20103                                          0003 O99    9           999     99          999929           2 A+                                        9999        000000000000000+000000000000000+000000000000000+000000000000000+000000000000000+000000000000000+000000000000000+000000000000000+000000000000000+000000000000000+000000000000000+000000000072222+000000000000000000000000000000000000000000000000000000000000000000000000000000000000000000                              5 92   2292                                                                                     2                             00043                              11                                           20429                                                                               192999990999MM                  cPE     P20110111                FINANCEMENT                   LOAN JJ_BLANC                                                
LD0032110719                                      21106300001      SUM    MM         5115F                  EUR                                                 SG              FRFR1  20103                                          0003 O99    9           999     99          999929           2 A+                                        9999        000000000000000+000000000000000+000000000000000+000000000000000+000000000000000+000000000000000+000000000000000+000000000000000+000000000000000+000000000000000+000000000000000+000000000108333+000000000000000000000000000000000000000000000000000000000000000000000000000000000000000000                              5 92   2292                                                                                     2                             00043                              11                                           20429                                                                               192999990999MM                  cPE     P20110118                FINANCEMENT                   LOAN JJ_BLANC                                                
LD0032110719                                      21106300001      SUM    MM         5116F                  EUR                                                 CRED_AGR_SA     FRFR1  20103                                          0003 O99    9           999     99          999929           2 A+                                        9999        000000000000000+000000000000000+000000000000000+000000000000000+000000000000000+000000000000000+000000000000000+000000000000000+000000000000000+000000000000000+000000000000000+000000000061111+000000000000000000000000000000000000000000000000000000000000000000000000000000000000000000                              5 92   2292                                                                                     2                             00043                              11                                           20429                                                                               192999990999MM                  cPE     P20110119                FINANCEMENT                   LOAN JJ_BLANC                                                
LD0032110719                                      21106300001      SUM    MM         5119F                  EUR                                                 BCC             FRFR1  20103                                          0003 O99    9           999     99          999929           2 P+                                        9999        000000000000000+000000000000000+000000000000000+000000000000000+000000000000000+000000000000000+000000000000000+000000000000000+000000000086667+000000000000000+000000000000000+000000000000000+000000000000000000000000000000000000000000000000000000000000000000000000000000000000000000                              5 92   2292                                                                                     2                             00043                              11                                           20429                                                                               192999990199MM                  cPE     S20110128                FINANCEMENT                   DEPO JJ_BLANC                                                
LD0032110719                                      21106300001      SUM    MM         5121F                  EUR                                                 SG              FRFR1  20103                                          0003 O99    9           999     99          999929           2 A+                                        9999        000000000000000+000000000000000+000000000000000+000000000000000+000000000000000+000000000000000+000000000000000+000000000000000+000000000000000+000000000000000+000000000000000+000000000144444+000000000000000000000000000000000000000000000000000000000000000000000000000000000000000000                              5 92   2292                                                                                     2                             00043                              11                                           20429                                                                               192999990999MM                  cPE     P20110131                FINANCEMENT                   LOAN JJ_BLANC                                                
LD0032110719                                      21106300001      SUM    MM         5125F                  EUR                                                 BDF             FRFR1  10101                                          0003 O99    9           999     99          999929           2 A+                                        9999        000000000000000+000000000000000+000000000000000+000000000000000+000000000000000+000000000000000+000000000000000+000000000000000+000000000000000+000000000000000+000000000000000+000000000031250+000000000000000000000000000000000000000000000000000000000000000000000000000000000000000000                              1 92   2292                                                                                     2                             00043                              11                                           20429                                                                               191999990999MM                  cPE     P20110107                FINANCEMENT                   LOAN JJ_BCE                                                  
LD0032110719                                      21106300001      SUM    MM         5126F                  EUR                                                 BDF             FRFR1  10101                                          0003 O99    9           999     99          999929           2 A+                                        9999        000000000000000+000000000000000+000000000000000+000000000000000+000000000000000+000000000000000+000000000000000+000000000000000+000000000000000+000000000000000+000000000000000+000000000048611+000000000000000000000000000000000000000000000000000000000000000000000000000000000000000000                              1 92   2292                                                                                     2                             00043                              11                                           20429                                                                               191999990999MM                  cPE     P20110110                FINANCEMENT                   LOAN JJ_BCE                                                  
LD0032110719                                      21106300001      SUM    MM         5127F                  EUR                                                 BDF             FRFR1  10101                                          0003 O99    9           999     99          999929           2 A+                                        9999        000000000000000+000000000000000+000000000000000+000000000000000+000000000000000+000000000000000+000000000000000+000000000000000+000000000000000+000000000000000+000000000000000+000000000055556+000000000000000000000000000000000000000000000000000000000000000000000000000000000000000000                              1 92   2292                                                                                     2                             00043                              11                                           20429                                                                               191999990999MM                  cPE     P20110111                FINANCEMENT                   LOAN JJ_BCE                                                  
LD0032110719                                      21106300001      SUM    MM         5128F                  EUR                                                 BDF             FRFR1  10101                                          0003 O99    9           999     99          999929           2 A+                                        9999        000000000000000+000000000000000+000000000000000+000000000000000+000000000000000+000000000000000+000000000000000+000000000000000+000000000000000+000000000000000+000000000000000+000000000027778+000000000000000000000000000000000000000000000000000000000000000000000000000000000000000000                              1 92   2292                                                                                     2                             00043                              11                                           20429                                                                               191999990999MM                  cPE     P20110112                FINANCEMENT                   LOAN JJ_BCE                                                  
LD0032110719                                      21106300001      SUM    MM         5129F                  EUR                                                 BDF             FRFR1  10101                                          0003 O99    9           999     99          999929           2 A+                                        9999        000000000000000+000000000000000+000000000000000+000000000000000+000000000000000+000000000000000+000000000000000+000000000000000+000000000000000+000000000000000+000000000000000+000000000034722+000000000000000000000000000000000000000000000000000000000000000000000000000000000000000000                              1 92   2292                                                                                     2                             00043                              11                                           20429                                                                               191999990999MM                  cPE     P20110113                FINANCEMENT                   LOAN JJ_BCE                                                  
LD0032110719                                      21106300001      SUM    MM         5130F                  EUR                                                 BDF             FRFR1  10101                                          0003 O99    9           999     99          999929           2 A+                                        9999        000000000000000+000000000000000+000000000000000+000000000000000+000000000000000+000000000000000+000000000000000+000000000000000+000000000000000+000000000000000+000000000000000+000000000072917+000000000000000000000000000000000000000000000000000000000000000000000000000000000000000000                              1 92   2292                                                                                     2                             00043                              11                                           20429                                                                               191999990999MM                  cPE     P20110114                FINANCEMENT                   LOAN JJ_BCE                                                  
LD0032110719                                      21106300001      SUM    MM         5131F                  EUR                                                 BDF             FRFR1  10101                                          0003 O99    9           999     99          999929           2 A+                                        9999        000000000000000+000000000000000+000000000000000+000000000000000+000000000000000+000000000000000+000000000000000+000000000000000+000000000000000+000000000000000+000000000000000+000000000048611+000000000000000000000000000000000000000000000000000000000000000000000000000000000000000000                              1 92   2292                                                                                     2                             00043                              11                                           20429                                                                               191999990999MM                  cPE     P20110117                FINANCEMENT                   LOAN JJ_BCE                                                  
LD0032110719                                      21106300001      SUM    MM         5192F                  EUR                                                 CDC             FRFR1  11105                                          4003 O99    9           999     99          999929           2 P+                                        9999        000000032014292+000000000000000+000000000000000+000000000000000+000000000000000+000000000000000+000000000141080+000000000000000+000000000265688+000000000000000+000000032014292+000000000000000+000000000000000-00000016007147000000000000000-00000016007145000000000000000000000000000000                              5 92   2292                                                                                     2                             00043                              11                                           20309                                                                               192999991199MM                  cPE     S19970315                FINANCEMENT                   DEPO MLT_PE                                                  
LD0032110719                                      21106300001      SUM    MM         5193F                  EUR                                                 CDC             FRFR1  11105                                          4003 O99    9           999     99          999929           2 P+                                        9999        000000073175532+000000000000000+000000000000000+000000000000000+000000000000000+000000000000000+000000000055971+000000000000000+000000000626572+000000000000000+000000081712677+000000000000000+000000000000000000000000000000-00000018293882-00000013720412-00000041161238000000000000000                              5 92   2292                                                                                     2                             00043                              11                                           20309                                                                               192999993199MM                  cPE     S19981215                FINANCEMENT                   DEPO MLT_PE                                                  
LD0032110719                                      21106300001      SUM    MM         5194F                  EUR                                                 CDC             FRFR1  11105                                          4003 O99    9           999     99          999929           2 P+                                        9999        000000030489802+000000000000000+000000000000000+000000000000000+000000000000000+000000000000000+000000000134362+000000000000000+000000000292594+000000000000000+000000030489802+000000000000000+000000000000000-00000030489802000000000000000000000000000000000000000000000000000000000000                              5 92   2292                                                                                     2                             00043                              11                                           20309                                                                               192999991199MM                  cPE     S19970315                FINANCEMENT                   DEPO MLT_PE                                                  
LD0032110719                                      21106300001      SUM    MM         5195F                  EUR                                                 CDC             FRFR1  11105                                          4003 O99    9           999     99          999929           2 P+                                        9999        000000042685723+000000000000000+000000000000000+000000000000000+000000000000000+000000000000000+000000000188107+000000000000000+000000000350294+000000000000000+000000042685723+000000000000000+000000000000000-00000021342862000000000000000-00000021342861000000000000000000000000000000                              5 92   2292                                                                                     2                             00043                              11                                           20309                                                                               192999991199MM                  cPE     S19970315                FINANCEMENT                   DEPO MLT_PE                                                  
LD0032110719                                      21106300001      SUM    MM         5196F                  EUR                                                 CDC             FRFR1  11105                                          4003 O99    9           999     99          999929           2 P+                                        9999        000000022867352+000000000000000+000000000000000+000000000000000+000000000000000+000000000000000+000000000100772+000000000000000+000000000179888+000000000000000+000000022867352+000000000000000+000000000000000-00000007622451000000000000000-00000007622451-00000007622450000000000000000                              5 92   2292                                                                                     2                             00043                              11                                           20309                                                                               192999992199MM                  cPE     S19980315                FINANCEMENT                   DEPO MLT_PE                                                  
LD0032110719                                      21106300001      SUM    MM         5197F                  EUR                                                 CDC             FRFR1  11105                                          4003 O99    9           999     99          999929           2 P+                                        9999        000000045734706+000000000000000+000000000000000+000000000000000+000000000000000+000000000000000+000000000201543+000000000000000+000000000343951+000000000000000+000000045734706+000000000000000+000000000000000-00000009146941000000000000000-00000009146941-00000027440824000000000000000                              5 92   2292                                                                                     2                             00043                              11                                           20309                                                                               192999993199MM                  cPE     S19980915                FINANCEMENT                   DEPO MLT_PE                                                  
LD0032110719                                      21106300001      SUM    MM         5198F                  EUR                                                 CDC             FRFR1  11105                                          4003 O99    9           999     99          999929           2 P+                                        9999        000000077748998+000000000000000+000000000000000+000000000000000+000000000000000+000000000000000+000000000059469+000000000000000+000000000658601+000000000000000+000000086286143+000000000000000+000000000000000000000000000000-00000019056127-00000019056127-00000039636744000000000000000                              5 92   2292                                                                                     2                             00043                              11                                           20309                                                                               192999992199MM                  cPE     S19980615                FINANCEMENT                   DEPO MLT_PE                                                  
LD0032110719                                      21106300001      SUM    MM         5199F                  EUR                                                 CDC             FRFR1  11105                                          4003 O99    9           999     99          999929           2 P+                                        9999        000000045734705+000000000000000+000000000000000+000000000000000+000000000000000+000000000000000+000000000201543+000000000000000+000000000343951+000000000000000+000000045734705+000000000000000+000000000000000-00000009146941000000000000000-00000009146941-00000027440823000000000000000                              5 92   2292                                                                                     2                             00043                              11                                           20309                                                                               192999993199MM                  cPE     S19980915                FINANCEMENT                   DEPO MLT_PE                                                  
LD0032110719                                      21106300001      SUM    MM         5200F                  EUR                                                 CDC             FRFR1  11105                                          4003 O99    9           999     99          999929           2 P+                                        9999        000000038112253+000000000000000+000000000000000+000000000000000+000000000000000+000000000000000+000000000077643+000000000000000+000000000380349+000000000000000+000000038112253+000000000000000+000000000000000000000000000000-00000038112253000000000000000000000000000000000000000000000                              5 92   2292                                                                                     2                             00043                              11                                           20309                                                                               192999991199MM                  cPE     S19961115                FINANCEMENT                   DEPO MLT_PE                                                  
LD0032110719                                      21106300001      SUM    MM         5203F                  EUR                                                 CDC             FRFR1  11105                                          4003 O99    9           999     99          999929           2 P+                                        9999        000000030489802+000000000000000+000000000000000+000000000000000+000000000000000+000000000000000+000000000095875+000000000000000+000000000163791+000000000000000+000000030489802+000000000000000+000000000000000000000000000000-00000007622451-00000007622451-00000015244900000000000000000                              5 92   2292                                                                                     2                             00043                              11                                           20309                                                                               192999992199MM                  cPE     S19980415                FINANCEMENT                   DEPO MLT_PE                                                  
LD0032110719                                      21106300001      SUM    MM         5205F                  EUR                                                 CDC             FRFR1  11105                                          4003 O99    9           999     99          999929           2 P+                                        9999        000000053357157+000000000000000+000000000000000+000000000000000+000000000000000+000000000000000+000000000096269+000000000000000+000000000331460+000000000000000+000000053357157+000000000000000+000000000000000000000000000000-00000013720412-00000016769392-00000022867353000000000000000                              5 92   2292                                                                                     2                             00043                              11                                           20309                                                                               192999992199MM                  cPE     S19990517                FINANCEMENT                   DEPO MLT_PE                                                  
LD0032110719                                      21106300001      SUM    MM         5206F                  EUR                                                 CDC             FRFR1  11105                                          4003 O99    9           999     99          999929           2 P+                                        9999        000000038112255+000000000000000+000000000000000+000000000000000+000000000000000+000000000000000+000000000152540+000000000000000+000000000212334+000000000000000+000000038112255+000000000000000+000000000000000-00000038112255000000000000000000000000000000000000000000000000000000000000                              5 92   2292                                                                                     2                             00043                              11                                           20309                                                                               192999991199MM                  cPE     S19970315                FINANCEMENT                   DEPO MLT_PE                                                  
LD0032110719                                      21106300001      SUM    MM         5207F                  EUR                                                 CDC             FRFR1  11105                                          4003 O99    9           999     99          999929           2 P+                                        9999        000000019056130+000000000000000+000000000000000+000000000000000+000000000000000+000000000000000+000000000076644+000000000000000+000000000094133+000000000000000+000000019056130+000000000000000+000000000000000-00000003811225000000000000000-00000003811225-00000011433680000000000000000                              5 92   2292                                                                                     2                             00043                              11                                           20309                                                                               192999993199MM                  cPE     S19980915                FINANCEMENT                   DEPO MLT_PE                                                  
LD0032110719                                      21106300001      SUM    MM         5208F                  EUR                                                 CDC             FRFR1  11105                                          4003 O99    9           999     99          999929           2 P+                                        9999        000000022867350+000000000000000+000000000000000+000000000000000+000000000000000+000000000000000+000000000042557+000000000000000+000000000136940+000000000000000+000000022867350+000000000000000+000000000000000000000000000000-00000004573471-00000004573471-00000013720408000000000000000                              5 92   2292                                                                                     2                             00043                              11                                           20309                                                                               192999993199MM                  cPE     S19981116                FINANCEMENT                   DEPO MLT_PE                                                  
LD0032110719                                      21106300001      SUM    MM         5209F                  EUR                                                 BDF             FRFR1  10101                                          0003 O99    9           999     99          999929           2 A+                                        9999        000000000000000+000000000000000+000000000000000+000000000000000+000000000000000+000000000000000+000000000000000+000000000000000+000000000000000+000000000000000+000000000000000+000000000013889+000000000000000000000000000000000000000000000000000000000000000000000000000000000000000000                              1 92   2292                                                                                     2                             00043                              11                                           20429                                                                               191999990999MM                  cPE     P20110203                FINANCEMENT                   LOAN JJ_BCE                                                  
